:1000000000200020F9000000050E0000050E000091
:10001000050E0000050E0000050E0000D10D0000C9
:10002000D10D0000D10D0000D10D0000050E000023
:10003000050E0000D10D0000050E0000C10D0000EE
:10004000050E0000050E0000050E0000050E000064
:10005000050E0000050E0000050E0000050E000054
:10006000050E0000050E0000050E0000050E000044
:10007000050E0000050E0000050E0000050E000034
:10008000C50C0000050E0000D91F0000050E000081
:1000900069080000050E0000050E0000050E0000B6
:1000A000050E0000050E0000050E0000050E000004
:1000B000050E0000050E00005D2100007521000006
:1000C0008D210000A5210000050E00000D16000086
:1000D000050E0000050E0000050E0000050E0000D4
:1000E000B910000009110000911100004D1200002C
:1000F000D1120000912400004E4B4CF2205210B55A
:100100001A804DF628121A8000BF00BF00F07EFE54
:10011000494B4A4A1A604A4A5A604A4B1A6812F4D2
:10012000807204D148490A604FF4A8521A60474BC4
:100130001A7802F00802D2B21AB11A7842F0080214
:100140001A70434B4348444C2A221A700023434AF6
:1001500002E019599950043399188142F9D3404B60
:10016000404A002101E043F8041B9342FBD33E4B7D
:1001700000221A603D4B3E4A802103F8011B934246
:10018000FBD13C4B0A221A703B4B24221A70A0224E
:1001900003F8012C394A137803F00203DBB2002B79
:1001A000F9D0364A137803F01003DBB2002BF9D1F3
:1001B000324A137803F00C03082BFAD1304B032298
:1001C0001A7040225A702D4A137803F02003DBB2D4
:1001D000002BF9D0294A137803F04003DBB2002B3F
:1001E000F9D0284B284A1A6002225A60274B202255
:1001F0001A70224A137803F00C030C2BFAD1244A0C
:10020000244B1A60244B254A1A60072243F8042C19
:1002100062B601F0F5F80C4B1B68DC0702D52048EC
:1002200001F06EF802F014FA00F0F6FD02F0F8F9B1
:10023000FEE700BF0E20054038800440823F0400E6
:100240000100002B10D0034014D0034002D007401F
:1002500000E00740B4E9FF1FC032000000E4FF1FC8
:10026000B4E9FF1F7CEDFF1F08ED00E000E400E0B3
:100270002EE400E0005006400140064006400640E3
:100280000440064044800440000003010040064052
:10029000C01005000480044014E000E0FF76010077
:1002A0001C913154FFFFFFFFFFFFFFFFFFFFFFFF28
:1002B000FFFFFFFFFFFFFFFFFFFFFFFFFFFFFFFF4E
:1002C000FFFFFFFFFFFFFFFFFFFFFFFFFFFFFFFF3E
:1002D000FFFFFFFFFFFFFFFFFFFFFFFFFFFFFFFF2E
:1002E000FFFFFFFFFFFFFFFFFFFFFFFFFFFFFFFF1E
:1002F000FFFFFFFFFFFFFFFFFFFFFFFFFFFFFFFF0E
:10030000FFFFFFFFFFFFFFFFFFFFFFFFFFFFFFFFFD
:10031000FFFFFFFFFFFFFFFFFFFFFFFFFFFFFFFFED
:10032000FFFFFFFFFFFFFFFFFFFFFFFFFFFFFFFFDD
:10033000FFFFFFFFFFFFFFFFFFFFFFFFFFFFFFFFCD
:10034000FFFFFFFFFFFFFFFFFFFFFFFFFFFFFFFFBD
:10035000FFFFFFFFFFFFFFFFFFFFFFFFFFFFFFFFAD
:10036000FFFFFFFFFFFFFFFFFFFFFFFFFFFFFFFF9D
:10037000FFFFFFFFFFFFFFFFFFFFFFFFFFFFFFFF8D
:10038000FFFFFFFFFFFFFFFFFFFFFFFFFFFFFFFF7D
:10039000FFFFFFFFFFFFFFFFFFFFFFFFFFFFFFFF6D
:1003A000FFFFFFFFFFFFFFFFFFFFFFFFFFFFFFFF5D
:1003B000FFFFFFFFFFFFFFFFFFFFFFFFFFFFFFFF4D
:1003C000FFFFFFFFFFFFFFFFFFFFFFFFFFFFFFFF3D
:1003D000FFFFFFFFFFFFFFFFFFFFFFFFFFFFFFFF2D
:1003E000FFFFFFFFFFFFFFFFFFFFFFFFFFFFFFFF1D
:1003F000FFFFFFFFFFFFFFFFFFFFFFFFFFFFFFFF0D
:10040000FFFFFFFFFFFFFFFFFFFFFFFFFEFFFFFFFD
:1004100008B54EF6B410074BC1F6FF701B1A062B39
:1004200000D808BD40F20003C0F20003002BF8D052
:100430009847F6E7B7E9FF1F08B54EF6B4104EF639
:10044000B413C1F6FF70C1F6FF731B1A9B1003EBC8
:10045000D373591000D108BD40F20002C0F200026F
:10046000002AF8D09047F6E710B54EF6B414C1F65E
:10047000FF74237873B9FFF7CBFF40F20003C0F29B
:1004800000032BB143F2C020C0F20000AFF30080A4
:100490000123237010BD00BF08B540F20003C0F275
:1004A00000034BB143F2C0204EF6B811C0F2000079
:1004B000C1F6FF71AFF300804EF6B410C1F6FF70C5
:1004C00003682BB140F20003C0F2000303B1984768
:1004D000BDE80840FFF7B0BF024B1878012100F0DB
:1004E0003FBF00BF04E4FF1F10B5094C0121207875
:1004F00000F016FF4FF47A7000F06CFF20780021B6
:1005000000F00EFF4FF47A70BDE8104000F062BFBB
:1005100004E4FF1F002300E00133C25C002AFBD18A
:100520001846704710B50023B0FBF2F402FB14002C
:10053000092801D8303000E03730C85420460CB1CB
:100540000133F1E7CA185470224605E0885CCC5CA0
:100550008C54C8540132013B9A42F7DB084610BD67
:1005600072B60C4A1168B1FA81F30B2B02D962B64C
:10057000002070474FF0004020FA03F021EA00010C
:10058000116062B6044948225343C8180022CA5079
:100590004260704708E4FF1FA0E0FF1F0C4B482299
:1005A000C31AB3FBF2F30B2B11D80A4A127822B10B
:1005B000094A12780AB100F0ABBF72B6074A4FF091
:1005C000004121FA03F311681943116062B67047C4
:1005D000A0E0FF1F3EECFF1F47ECFF1F08E4FF1FDA
:1005E000174B1A6842F480521A60164A002313709F
:1005F000154A1370154A1370154A1370154A137073
:10060000154A40F2133111604FF451715160134A91
:10061000C0F344311170C0F3471100F01F00517056
:100620009072937013740E4B2C221A700D4B402253
:100630001A70A3F545734FF480121A60704700BF1B
:10064000348004403AEAFF1FD1E9FF1F3CEAFF1F54
:100650003BEAFF1FD0E9FF1F08C0044000C006406E
:1006600003C0064014E400E0134A137800F00301CD
:1006700003F0EC030B43410748BF43F01003137032
:1006800000F00F03042B04D10C4B1A7842F0400207
:100690001A700B4A1378C10603F0EF0348BF43F00A
:1006A00010031370054A1378810603F0EF0348BF67
:1006B00043F010031370704702C0064006C00640A6
:1006C00005C006400E4B1B68D80410B503D410BDFE
:1006D00000F0CCFE00E00B4C2378002BF8D10A4A46
:1006E0004FF480111160094A0949137040F2031256
:1006F0000A604A60074A1370074A137010BD00BFB2
:1007000034800440D0E9FF1F80E100E003C00640D0
:1007100008C004403AEAFF1FD1E9FF1F1B4B1B68CA
:10072000DA042DE9F04106462DD5194B194D1C78F8
:10073000194FDFF86C800134272C88BF002415E0A6
:1007400000F074FB40280DDC3B781B060ED52B789F
:10075000124A0133272B88BF002318F803101170A9
:100760002B7003E0FF2801DD00F080FE2B78A34210
:10077000E6D00B4B1E550B4B01221A70044B1C701C
:10078000094BAC221A70BDE8F08100BF34800440F0
:100790003CEAFF1F3BEAFF1F04C0064007C00640BB
:1007A000D2E9FF1FD0E9FF1F03C0064038B5451846
:1007B000044603E014F8010BFFF7B0FFAC42F9D197
:1007C00038BDFFFF10B5044C01E000F04FFE237868
:1007D000002BFAD110BD00BFD0E9FF1F044B1878E1
:1007E000044B1B78984238BF4030C01A704700BF96
:1007F0003AEAFF1FD1E9FF1F084B094A197813781D
:10080000994207D001333F2B88BF00230549C85CBC
:10081000137070474FF0FF30704700BF3AEAFF1F78
:10082000D1E9FF1FFAE9FF1F074B1A78074B1B7826
:100830009A4206D001333F2B88BF0023044AD05C84
:1008400070474FF0FF3070473AEAFF1FD1E9FF1FB2
:10085000FAE9FF1F024B1A78024B1A70704700BF6B
:10086000D1E9FF1F3AEAFF1F10B5214B1B7803F0B7
:100870002003DBB273B11F4B1F4A18781F4913784E
:10088000097801333F2B88BF00238B4202D01C49DB
:10089000C85413701B490B7818465BB2002B15DA4D
:1008A000134B1B781B0611D5174B184A1C7813786D
:1008B0009C4202D16C230B7008E00133272B88BFC8
:1008C00000231349CC5C0B490C70137000F04003FB
:1008D000DBB25BB1064B1B7803F04003DBB22BB1FC
:1008E0000C4B00221A70074B2C221A7010BD00BF4F
:1008F00004C0064007C006403AEAFF1FD1E9FF1FC7
:10090000FAE9FF1F03C006403CEAFF1F3BEAFF1F56
:10091000D2E9FF1FD0E9FF1F1A4B1A6842F4806228
:100920001A60194A00231370184A1370184A13707A
:10093000184A1370184A1370184B40F213321A6099
:100940004FF451725A60164BC0F344321A70C0F320
:1009500047125A7000F01F00124A987202210423B5
:1009600013705174D374104B88221A703C2203F810
:100970000D2C0E4B40221A70A3F544734FF48032B5
:100980001A60704734800440BFEAFF1F3EEAFF1F31
:10099000C8EAFF1FC0EAFF1F3DEAFF1F40A0044056
:1009A00000A0064002A0064010A0064010E400E0AF
:1009B000134A137800F0030103F0EC030B434107E3
:1009C00048BF43F01003137000F00F03042B04D151
:1009D0000C4B1A7842F040021A700B4A1378C10689
:1009E00003F0EF0348BF43F010031370054A137878
:1009F000810603F0EF0348BF43F010031370704704
:100A000002A0064006A0064005A006400E4B1B684B
:100A1000580510B503D410BD00F028FD00E00B4CC4
:100A20002378002BF8D10A4A4FF480311160094A2B
:100A30000949137040F203120A604A60074A1370B2
:100A4000074A137010BD00BF348004403DEAFF1F09
:100A500080E100E003A0064040A00440BFEAFF1F81
:100A60003EEAFF1F38B5094B04461D78002DFCD126
:100A70002046012100F074FC2046294600F050FC7D
:100A8000034B53F83420034B1A6038BD3DEAFF1F77
:100A9000A82F0000C4EAFF1F1D4B1B685A052DE953
:100AA000F041064632D51B4B1B680BB101221A7070
:100AB000194B1A4D1C781A4FDFF86C8001343F2C0B
:100AC00088BF002415E000F0B1F940280DDC3B7828
:100AD0001B060ED52B78134A01333F2B88BF00230A
:100AE00018F8031011702B7003E0FF2801DD00F0EF
:100AF000BDFC2B78A342E6D00B4B1E550B4B0122BD
:100B00001A70054B1C700A4BBC221A70BDE8F081AC
:100B100034800440C4EAFF1FC8EAFF1FC0EAFF1F79
:100B200004A0064007A006403FEAFF1F3DEAFF1F62
:100B300003A006402DE9F84F254B1B6806465805D3
:100B4000884643D5234B1B680BB101221A70224DF6
:100B5000B346A94633E0214B1C782F7801343F2C53
:100B600088BF0024A74209D01BF8012B1C4B1A5543
:100B70001C4B01221A70194B1C7020E01A4BDFF835
:100B800070A0BC221A7000F051F940280FDC9AF8CE
:100B9000003019060FD52B78114A01333F2B88BF3F
:100BA0000023D15C114A117089F8003003E0FF285E
:100BB00001DD00F05BFC2B78BB42E4D0D4E706EB10
:100BC00008039B45C7D3084BBC221A70BDE8F88FB9
:100BD00034800440C4EAFF1FC0EAFF1FC8EAFF1FB9
:100BE0003FEAFF1F3DEAFF1F03A0064007A00640A3
:100BF00004A0064010B5044C01E000F037FC237857
:100C0000002BFAD110BD00BF3DEAFF1F044B18783E
:100C1000044B1B78984238BF4030C01A704700BF61
:100C2000BFEAFF1F3EEAFF1F084B094A19781378F5
:100C3000994207D001333F2B88BF00230549C85C88
:100C4000137070474FF0FF30704700BFBFEAFF1FBF
:100C50003EEAFF1F7FEAFF1F074B1A78074B1B78FE
:100C60009A4206D001333F2B88BF0023044AD05C50
:100C700070474FF0FF307047BFEAFF1F3EEAFF1F8B
:100C80007FEAFF1F0A4B1B685B050FD5094B1A78DB
:100C900002F0CB021A70084A402111701A7842F013
:100CA00034021A70054B1A78054B1A70704700BF52
:100CB0003480044003A0064011A006403EEAFF1F16
:100CC000BFEAFF1FF0B5304B1B7813F0300F20D078
:100CD00072B62E4B197831B90F3B40221B782C4B42
:100CE0001A7062B615E062B62A4B2B4C1A782B4B61
:100CF0002B4D1878531C3F2B88BF00232678834246
:100D00001CBFEE541A46013911F0FF01F2D1214BFC
:100D10001A70244B1B7819465BB2002B1FDA1A4A53
:100D2000137818061BD5204B204E1F78204B1A4DE8
:100D30001B78204CBB4209D001333F2B88BF0023D6
:100D40001078F05C287020780728F3D9184A1370BF
:100D50000D4B1B781A0602D5124B7C221A7001F03B
:100D60004003DBB27BB1084B1B7803F04003DBB2DE
:100D70004BB1114B00221A70104B1B6803B11A7053
:100D8000084B3C221A70F0BD04A0064016A0064095
:100D900011A00640BFEAFF1F07A006403EEAFF1F62
:100DA0007FEAFF1F03A00640C8EAFF1F3FEAFF1FBC
:100DB000C0EAFF1F14A006403DEAFF1FC4EAFF1F60
:100DC000024B1A6801321A60704700BF64EBFF1FC4
:100DD00038B50B4C25462368580301D500F016FCA6
:100DE0002B68590501D5FFF76DFF2B681A0501D552
:100DF00001F0F2F82368DB04EDD5FFF735FDEAE7F3
:100E00003480044008B5FFF7E3FFFFFF014B1022D9
:100E10001A807047002005407047FFFF024A1368A0
:100E200018181060184670470CE4FF1FEFF3138387
:100E30009BB9EFF3108098B9EFF3058323B10F2B23
:100E400004D9084A985C01E04FF48070EFF31183F5
:100E50003BB1984228BF184670474FF0FF307047AB
:100E600018467047F0E300E038B5114C23684BB1E9
:100E70000F4D28684288811801320C7A01888A4215
:100E800012D30CE00B4B1B7813B94FF0FF340CE07E
:100E9000032000F00DFB20600028E9D1F5E7FFF703
:100EA0007DFB00232B6000E04280204638BD00BF60
:100EB000D4EAFF1F47ECFF1F10B50C4C23681BB191
:100EC0000A4B1B686BB902E0094B1B7813B94FF052
:100ED000FF3010BD032000F0EBFA20600028EFD1B6
:100EE000F5E75A889B18187A10BD00BFD4EAFF1F97
:100EF00047ECFF1F044B9888044B1B681BB11A88F2
:100F00005B88D31AC018704770EDFF1FD4EAFF1F2B
:100F10002DE9F8432D4B2E4DDFF8C08001220C4601
:100F20001A7006464BE02B682BBBDFF8A0904AF204
:100F3000F92798F8003013B9244A137014E00420FC
:100F400000F0D2FA072808D8012389F80030FFF70B
:100F500007FB286078B989F80000013F1D4B01D0DC
:100F60001A782AB101221A704FF0FF30BDE8F883D9
:100F700000F07CFADDE72968164A488800231370E0
:100F8000C0F14002944238BF224600F108078018A1
:100F9000CF194880A41A02E0F05CF8540133934260
:100FA000FAD1F6184B883F2B06D940230B8004203A
:100FB00000F0ECFA00232B60074B05221A70002C7E
:100FC000B1D1024B20461C70BDE8F883CAEAFF1F6E
:100FD000CCEAFF1FD0EAFF1FC9EAFF1F47ECFF1F43
:100FE00007B502AB012103F8010D1846FFF790FF8A
:100FF0000EBDFFFFF8B5114B1B78EBB1104E114B36
:101000003468114D01271F704CB1638800272F7081
:1010100004202380214600F0B9FA376009E0FFF789
:101020009FFA014620B104202C7000F0AFFA00E0D6
:101030002F70044B00221A70F8BD00BF47ECFF1F51
:10104000CCEAFF1FCAEAFF1FC9EAFF1F38B50D4BE4
:101050001D78ADB90C4C216831B14B8804200B8050
:1010600000F094FA256038BDFFF77AFA014620B106
:101070000420BDE8384000F089BA044B01221A7000
:1010800038BD00BFCAEAFF1FCCEAFF1FC9EAFF1F35
:10109000084B4FF480721A604FF400721A604FF4DC
:1010A00080621A604FF400621A604FF480521A6036
:1010B000704700BF04E100E0114B10B51C68E0046C
:1010C0001C6004D50F4BDA680AB1DB689847A104AD
:1010D00004D50C4B1A690AB11B699847A20604D5BE
:1010E000084B1A6E0AB11B6E9847E30606D5054BEE
:1010F000D3F8842012B1D3F88430984710BD00BFD4
:10110000A0900440DCEAFF1F1F4B10B51C68E003F1
:101110001C6004D51D4B1A680AB11B689847A103CF
:1011200004D51A4B5A680AB15B689847E20704D5A0
:10113000164B1A6C0AB11B6C9847A30704D5134BC6
:101140005A6C0AB15B6C9847200704D50F4B9A6C18
:101150000AB19B6C9847610704D50C4BDA6C0AB155
:10116000DB6C9847220304D5084B5A6E0AB15B6EBC
:101170009847630306D5054BD3F8802012B1D3F806
:101180008030984710BD00BFA0A00440DCEAFF1FDC
:101190002C4B10B51C6820071C6004D52A4B5A6ADA
:1011A0000AB15B6A9847E10604D5274B9A6A0AB1EF
:1011B0009B6A9847620604D5234BDA6A0AB1DB6A58
:1011C0009847230604D5204B1A6B0AB11B6B98472E
:1011D000A00604D51C4B5A6B0AB15B6B9847E1071C
:1011E00004D5194BDA6B0AB1DB6B9847A20704D51B
:1011F000154B9A6D0AB19B6D9847630704D5124B46
:10120000DA6D0AB1DB6D9847A00504D50E4BDA6E96
:101210000AB1DB6E9847E10504D50B4B1A6F0AB192
:101220001B6F9847620504D5074B5A6F0AB15B6F75
:101230009847230504D5044B9A6F0AB19B6F9847D2
:1012400010BD00BFA0B00440DCEAFF1F1E4B10B56C
:101250001C68E0071C6004D51C4B9A680AB19B68A7
:101260009847210604D5194B5A690AB15B6998471A
:10127000E20604D5154B9A690AB19B699847630742
:1012800004D5124BDA690AB1DB699847200704D507
:101290000E4B1A6A0AB11B6A9847A10704D50B4B7B
:1012A0009A6B0AB19B6B9847A20604D5074B1A6D3F
:1012B0000AB11B6D9847630604D5044B5A6D0AB1F9
:1012C0005B6D984710BD00BFA0C00440DCEAFF1F63
:1012D000094B10B51C68A2071C6004D5074B9A6E19
:1012E0000AB19B6E9847E30704D5044BDA6F0AB145
:1012F000DB6F984710BD00BFA0D00440DCEAFF1FA1
:10130000044B054900221A600A60044A106010224A
:101310001A60704714D0034004D0034000D003404B
:10132000212810B518D80D4A52F8303093F8804271
:101330003CB1012211B183F8802010BD83F8002157
:1013400010BD02EBC00043681A6811B142F00302FD
:1013500001E022F002021A6010BD00BFA82F0000B9
:10136000212816D80B4A02EBC00301295B6852F80A
:10137000302004D182F880124FF4A27208E00020DD
:1013800082F8800211B94FF4807201E040F203123A
:101390001A607047A82F000072B60B4B0B491A68F1
:1013A0000B4B1B68096862B6490102D5322A88BF17
:1013B0000133C2F5BB32FF326021B2FBF1F24FF4D0
:1013C0007A7000FB0320704718E000E004ED00E0B5
:1013D00064EBFF1F70B50446FFF7DEFF05466CB1F6
:1013E00040F2E736FFF7D8FF401BB04203D9013C7B
:1013F00004D005F57A7500F039F8F3E770BDFFFF0A
:1014000010B5FFF745FE124B124A134C00204BF665
:10141000FF71186059602823136093601361936112
:101420001362936213639363092222600B4C206062
:101430000B4801600B490B608B600B4B1A6000F08E
:1014400023FE0420FFF7C6FFBDE8104000F0FABB02
:10145000048003400C80034000800340049003405C
:10146000089003400C900340009003407047FFFF3A
:10147000F0B50C4B0C4C1A7842F0020504EBC50693
:1014800082F00102706009481A700678002E0CBFC5
:101490008827C82747EA014186F0010644F835103D
:1014A0000670F0BDD0EBFF1F00E0FF1F48ECFF1FF0
:1014B000431E032B10B510D872B6094A52F8230008
:1014C00048B1416842F82310064A018832F81340B7
:1014D000611A22F8131062B610BD002010BD00BFC3
:1014E000C0EBFF1F70EDFF1F013803280BD872B649
:1014F000064B53F82030002001E05B680130002BE0
:10150000FBD162B670470020704700BF14ECFF1F8C
:1015100070B572B6184E194C01239A1912F8012CA5
:1015200002F00802D2B2E2B19900144A54F83150E4
:101530002DB902EB431308305860114B09E041F01C
:10154000010154F8315065B902EBC103083058600D
:101550000C4B42F831300C4B1A78013A1A7062B6D3
:1015600070BD0133052BD8D162B6074B00221A702B
:10157000BDE87040FFF712B8B830000000E0FF1F70
:1015800088004000C80040003EECFF1F431E032BB4
:1015900030B532D84001194A40F01000101872B628
:1015A000174CE25C032A09D8DFE802F0160218059E
:1015B0000830022213E00830042210E01148124AD9
:1015C00050F8234014B940F8231002E052F82300E9
:1015D000416042F823100FE0032200E00522E254AC
:1015E00010F0080F01F108030A8843600CBF88233C
:1015F000C82343EA0243036062B630BD00E0FF1F28
:101600007CEBFF1F14ECFF1F24ECFF1F2DE9F74FAD
:10161000A54EA64C357805F00403DBB2ABB1A44B64
:101620001B7883B1A34A137823B1013BDBB213705B
:1016300003B900BEA04A13782BB1013BDBB2137093
:101640000BB9FFF703FD0423337005F00802D2B293
:10165000002A00F08082994B1B781D094FEA9309FC
:1016600040F0FE8104EBC903586854F83930C3F3E5
:101670008303013B0C2B00F2F081DFE813F0A9019A
:10168000A901EE01EE01EE01EE01EE01EE01C50150
:10169000EE01EE01EE010D004368894902684B60DE
:1016A000884B894844F83930884D0A60002303602C
:1016B0000120287092B240F28165AA422361A361A1
:1016C00017D8B2F5D06F80F02C81B2F5817F00F091
:1016D000DC8006D8802A00F0C280822A40F03D815A
:1016E000C1E040F202339A4200F00C81B2F5A06FE3
:1016F00016E042F22105AA4200F0678108D8B2F54F
:10170000086F00F0A680B2F5106F40F026810AE065
:1017100042F22120824200F01C8142F221339A429F
:1017200040F01B811DE18A78614B604D1A702B6A75
:10173000180603D5686A0838FEF730FF644A083592
:101740009542F4D1DFF8B091DFF8B0B10025A8469A
:10175000CA4655F8090005E043680093FEF71EFFEE
:10176000009B18460028F7D15A4B4AF8050045F867
:101770000B00E85807E0426800930192FEF70EFF65
:10178000019A009B10460028F5D15851524BE85061
:10179000524B23F81800524B18F80320023A032A40
:1017A00008D8DFE802F002040204002200E001226F
:1017B00003F8082008F101080435B8F1040FC8D176
:1017C000484BDFF83C9100221A7001259846464BA1
:1017D00005EB0902EB1812F8012C9B001A7002F0BD
:1017E0000802D2B23AB3FEF7BBFEAB0038B104EB4D
:1017F0004512083050603D4A44F8332006E044F872
:10180000330098F80030013388F80030FEF7A8FE66
:10181000AB0043F0010338B104EBC3020830506061
:10182000284A44F8332006E044F8330098F80030A2
:10183000013388F80030AA0042F00201013542F07D
:1018400003020023052D44F8313044F83230BED174
:1018500088E0174B264D1B782B70034685E0244DFE
:101860002B706B7080E08A88042A00D975E0204DC7
:101870002B706B701F4B9200D3181B7803F0020380
:10188000DBB2002B70D028706EE08A8802F07F03F4
:10189000042B62DC4B8803B15FE09100154A8A1883
:1018A000117821F0020156E08020074000E0FF1F80
:1018B00047ECFF1FD1EBFF1FC9EAFF1F9020074035
:1018C00034ECFF1FC800400068EBFF1F48ECFF1F0F
:1018D00080E0FF1F14ECFF1F24ECFF1F70EDFF1FC3
:1018E0007CEBFF1F3EECFF1F30C80110880040005A
:1018F0003FECFF1FC0200740C0EBFF1F6CEBFF1F3A
:10190000B83000008A8802F07F03042B25DC4B8866
:1019100003B122E09100A14A8A18117841F0020136
:1019200019E04A889E4B898853F8085CA3F10C00A3
:101930009DB133F80CCC944509D133F80ACC8C45D1
:1019400005D1120A032A0CBF2B7803890DE00C3352
:10195000EAE78978934A117004E0904B0F221A70DD
:1019600033E000231D4600E002238F4AB2F80690C0
:101970004B4538BF9946B9F1400F34BFC8464FF0C8
:10198000400828464146FFF773FDB9EB0809454476
:1019900003D1B8F1400F07D017E0B9F1400F34BFC1
:1019A000C8464FF0400800E0C84628464146FFF7C9
:1019B0005FFDB9EB0809454402D1B8F1400F04D1ED
:1019C0007A4B7B4A1D60A2F800900122794B43E0DC
:1019D000754B1A8842F221039A4211D1764A0023AC
:1019E000C15C99540133072BFAD1734B1B68862BCA
:1019F00002D1724B0F221A7000200146FFF738FD0A
:101A00006F4B44F8393028E0684BD3F80080B8F1C8
:101A1000000F18D0DFF89891B9F800A0BAF1400F84
:101A200034BF5546402540462946FFF721FDC5EB0A
:101A30000A039BB2A9F800300BB9402D01D108EB85
:101A400005035A4A1360584B1A88B2F5A06F04D1A7
:101A500000225A709A785B4B1A700122554B6DE048
:101A600004EBC90803F00803D8F80420013DD9B2FB
:101A7000A2F10800EDB2002937D0FEF78FFD5248E1
:101A8000524B50F82510F1B14A6840F8252001F179
:101A90000802C8F804205A5D032A0BD8DFE802F0D8
:101AA00002040608032204E0022202E0052200E00C
:101AB00004225A5518F0080F0A880CBF8823C8233F
:101AC00043EA024342E05A5D032A07D8DFE802F006
:101AD00040400204002206E0012204E018F0080F52
:101AE0000CBF022203225A5532E054F839301B0C45
:101AF00022F8083C23B322F8061C42F8041C344A9E
:101B0000344952F8257017B942F8250002E051F81F
:101B100025205060304A41F8250032F815105B1836
:101B200022F81530FEF71CFD18B10830C8F8040083
:101B300006E02A4B44F839001A7801321A7007E09F
:101B40001F4B274A18F0080F08BF134644F83930D6
:101B5000082333705EE5E90752D516492048214C29
:101B600002230B70204B1A70204B1860986020489D
:101B70001A61D8609A615C60084B0D2018701D488E
:101B8000FF23037000F8083C02741B4A13701B4BC0
:101B90009F221A7001230B704BE000BFC02007404A
:101BA000C8300000D8EAFF1F34ECFF1F68EBFF1FAE
:101BB0003CECFF1F9420074068EDFF1FD1EBFF1F97
:101BC000C80040009820074014ECFF1F7CEBFF1F6B
:101BD000C0EBFF1F6CEBFF1F70EDFF1F3EECFF1F04
:101BE0008800400080EBFF1FD0EBFF1F00E0FF1FCD
:101BF000D4EBFF1F882007408C200740842007403B
:101C00002B0605D50C4B0D221A70802203F8402CB0
:101C100005F00203DBB22BB1084B1A781A700222CE
:101C200003F8082C05F01005EDB215B1044B102295
:101C30001A70BDE8FE8F00BFC02007408820074013
:101C40008020074008B500F04BF800231D491A46D4
:101C50005A50C8180833882B4260F9D11A4B1A68B9
:101C600042F480221A60194B80221A701978174AA0
:101C70000906FBD4134B1649C3F307200870C3F3BE
:101C800007401B0E08750B76FF2301F81C3C01F87A
:101C9000143C01F88C3C137843F04003137000218E
:101CA000012302F8783C02F80C1C02F8883C094B2E
:101CB00070221A70084B08221A60084B10221A7002
:101CC00008BD00BF00E0FF1F348004400C21074026
:101CD0009C20074023E400E004E100E008210740E5
:101CE0001FB572B6154B70221A70154A412111703A
:101CF0000F2102F8011C80221A701A781206FCD5F6
:101D0000104B186862B6104B984201D80A2358430A
:101D100001A90A22FEF706FC0C48002301AA9A5CDE
:101D20002AB100EB430101330A2B4A80F6D101337B
:101D3000064A5B00137005B000BD00BF0000024002
:101D400007000240080002407F96980098E4FF1FB9
:101D5000164B1A6842F400621A60154A0023137089
:101D6000144A1370144A1370144A1370144A1370EF
:101D7000144A40F2133111604FF451715160124A0C
:101D8000C0F344311170C0F3471100F01F005170CF
:101D90009072937013740D4B2C221A700C4B4022CE
:101DA0001A700C4B4FF480221A6070473480044044
:101DB000B3ECFF1F4AECFF1FB5ECFF1FB4ECFF1F95
:101DC00049ECFF1F0CB0044000B0064003B00640D1
:101DD00012E400E000E100E0134A137800F0030190
:101DE00003F0EC030B43410748BF43F010031370AB
:101DF00000F00F03042B04D10C4B1A7842F0400280
:101E00001A700B4A1378C10603F0EF0348BF43F082
:101E100010031370054A1378810603F0EF0348BFDF
:101E200043F010031370704702B0064006B006403E
:101E300005B006400E4B1B68180510B503D410BD45
:101E4000FFF714FB00E00B4C2378002BF8D10A4A73
:101E50004FF480211160094A0949137040F20312BE
:101E60000A604A60074A1370074A137010BD00BF2A
:101E70003480044049ECFF1F80E100E003B00640DD
:101E80000CB00440B3ECFF1F4AECFF1F1B4B1B6858
:101E90001A052DE9F04106462DD5194B194D1C7830
:101EA000194FDFF86C800134272C88BF002415E01F
:101EB000FEF7BCFF40280DDC3B781B060ED52B78C7
:101EC000124A0133272B88BF002318F80310117022
:101ED0002B7003E0FF2801DDFFF7C8FA2B78A3423F
:101EE000E6D00B4B1E550B4B01221A70044B1C7095
:101EF000094BAC221A70BDE8F08100BF3480044069
:101F0000B5ECFF1FB4ECFF1F04B0064007B006405D
:101F10004BECFF1F49ECFF1F03B0064038B54518D6
:101F2000044603E014F8010BFFF7B0FFAC42F9D10F
:101F300038BDFFFF10B5044C01E0FFF797FA237896
:101F4000002BFAD110BD00BF49ECFF1F044B1878DD
:101F5000044B1B78984238BF4030C01A704700BF0E
:101F6000B3ECFF1F4AECFF1F084B094A197813789E
:101F7000994207D001333F2B88BF00230549C85C35
:101F8000137070474FF0FF30704700BFB3ECFF1F76
:101F90004AECFF1F73ECFF1F074B1A78074B1B78A7
:101FA0009A4206D001333F2B88BF0023044AD05CFD
:101FB00070474FF0FF307047B3ECFF1F4AECFF1F34
:101FC00073ECFF1F024B1A78024B1A70704700BF68
:101FD0004AECFF1FB3ECFF1F10B5214B1B7803F039
:101FE0002003DBB273B11F4B1F4A18781F491378C7
:101FF000097801333F2B88BF00238B4202D01C4954
:10200000C85413701B490B7818465BB2002B15DAC5
:10201000134B1B781B0611D5174B184A1C781378E5
:102020009C4202D16C230B7008E00133272B88BF40
:1020300000231349CC5C0B490C70137000F0400373
:10204000DBB25BB1064B1B7803F04003DBB22BB174
:102050000C4B00221A70074B2C221A7010BD00BFC7
:1020600004B0064007B00640B3ECFF1F4AECFF1F68
:1020700073ECFF1F03B00640B5ECFF1FB4ECFF1F6D
:102080004BECFF1F49ECFF1F1C4B60221A70E12232
:102090005A701B4B1B4A19781B4B082901D101218F
:1020A00002E00A2903D139211160132206E00C292C
:1020B00001D1352100E03D21116012221A60134B3D
:1020C0001A78134B02B101221A60124B1A78124B84
:1020D000012A01D880220CE0042A01D8842208E0D9
:1020E000082A01D8852204E0102A01D8862200E0BF
:1020F00087221A60094B01221A707047004007407E
:10210000AEE4FF1F08B003400CB00340B7ECFF1F64
:1021100020B00340AFE4FF1F24B00340B6ECFF1F24
:1021200008461146FEF7F4BE0846FEF759BFFEF713
:1021300061BFFEF7C1BEFEF797BEFEF7DBBEFFFF35
:10214000044B00221A711A73034A4FF47A71996092
:102150001A607047B8ECFF1F1831000008B5034B38
:1021600001221A60024B1B68984708BD0C7103409E
:10217000D0ECFF1F08B5034B01221A60024B5B68CD
:10218000984708BD1C710340D0ECFF1F08B5034BF6
:1021900001221A60024B9B68984708BD2C710340CE
:1021A000D0ECFF1F08B5034B01221A60024BDB681D
:1021B000984708BD3C710340D0ECFF1F054B01223E
:1021C0001A60054B1A6822F400021A60034B0022C1
:1021D0001A707047007003403C800440CCECFF1F35
:1021E000037B0122591103F01F0302FA03F3084A8B
:1021F00042F821308268002313604178054A535425
:10220000D15C21B90133042BFAD1FFF7D7BF704756
:1022100080E100E0C8ECFF1F037810B504460BB165
:10222000FFF7DEFF0023237010BD2DE9F0410024ED
:1022300007460D4626463B190A22197928460023EF
:1022400000F022F82B6880462E211B68284698470C
:1022500001344044032C0644EDD12846F9790A2282
:10226000002300F011F88019BDE8F081044B054A05
:102270001A6000221A715A719A71DA71704700BFA0
:10228000E0ECFF1F38310000F0B505468BB022B9F5
:102290000368C9B21B6898472CE0012A08BF0A22CC
:1022A00021B930228DF82520212413E02124B1FB0F
:1022B000F2F002FB1011C9B2092901D8303100E057
:1022C00037310AAF3E1906F8241C014610B1013C13
:1022D000E4B2ECE733B1013C0AAAE4B213192D22AF
:1022E00003F8242C2B6801AF5B6828463919C4F128
:1022F000220298470BB0F0BD08B50368C9B21B684D
:10230000984708BD08B50368C9B21B68984708BD5F
:1023100008B50368C9B21B68984708BD08B50368CB
:10232000C9B21B68984708BD08B50368C9B21B68E5
:10233000984708BD08B50368C9B21B68984708BD2F
:1023400008B50368C9B21B68984708BD08B503689B
:10235000C9B21B68984708BD084608B5FEF7DEF904
:10236000012008BD084608B5FEF7D8F9012008BDD0
:1023700038B508460D46FEF7CDF8044621462846F6
:10238000FEF714FA204638BD10B50846144611462B
:10239000FEF70CFA204610BDFEF75CBAFEF712BA43
:1023A000FEF72ABAFEF740BAFEF718BAFEF78AB966
:1023B000480800F1B76000F55840B0FBF1F0FEF7B7
:1023C0000FB9480800F1B76010B500F55840B0FBF0
:1023D000F1F01446FEF704F92046BDE81040FEF780
:1023E00043B9084608B5FEF757FB012008BD08466B
:1023F00008B5FEF751FB012008BD38B508460D466B
:10240000FEF788F8044621462846FEF793FB20464F
:1024100038BD10B5084614461146FEF78BFB204622
:1024200010BDFEF72FBCFEF7E5BBFEF7FDBBFEF7C8
:1024300013BCFEF7EBBB0846FEF714BBFEF7E6BA8B
:10244000480800F1376000F5D830B0FBF1F0FEF736
:1024500063BA480800F1376010B500F5D830B0FB1A
:10246000F1F01446FEF758FA2046BDE81040FEF79A
:102470009FBAFFFF044B00221A711A73034A4FF4EC
:102480007A7199601A607047E8ECFF1F48310000CC
:10249000F8B5164B164D1A6842F080721A60154B4B
:1024A0001A6842F001021A60134B2E681C680FE094
:1024B000237A63B121682F680B68204698472A6801
:1024C000E388D21B12099A42A28088BFE280646925
:1024D000002CEDD1064B094A1B689B1B1B0913807E
:1024E000074A11888B4288BF1380F8BDFCED00E0DD
:1024F000041000E0001000E0F8ECFF1FFEECFF1FEE
:10250000FCECFF1F10B50446FFF786FE204610BD09
:1025100003480449044A0023037000F089B800BF4F
:1025200000EDFF1F0525000000E4FF1F044B002203
:102530001A711A73034A4FF47A7199601A607047DE
:1025400014EDFF1F9831000008B50368C9B21B687D
:10255000984708BD08B50368C9B21B68984708BD0D
:1025600008B50368C9B21B68984708BD08B5036879
:10257000C9B21B68984708BD084608B5FFF786FC36
:10258000012008BD084608B5FFF780FC012008BD02
:1025900038B508460D46FDF7BDFF044621462846DE
:1025A000FFF7BCFC204638BD10B50846144611465E
:1025B000FFF7B4FC204610BDFFF704BDFFF7BABC1F
:1025C000FFF7D2BCFFF7E8BCFFF7C0BCFFF732BC97
:1025D000480800F1376000F5D830B0FBF1F0FFF7A4
:1025E000B7BB480800F1376010B500F5D830B0FB34
:1025F000F1F01446FFF7ACFB2046BDE81040FFF7B2
:10260000EBBBFFFF044B00221A711A73034A4FF40D
:102610007A7199601A60704724EDFF1FE83100005D
:1026200008B5FDF759FFFDF75FFFFEF71FFFFAE75B
:1026300003460846194600F001B800BF30B405460D
:102640000C46134602202946224630BC00F020BB2F
:1026500070B543F2A42643F2A425C0F20006C0F2EE
:102660000005761BB61007D0043D002455F8043F42
:1026700001349847A642F9D143F2C02643F2A4257B
:10268000C0F20006C0F20005761B00F005FEB61091
:1026900008D0043D002455F8043F01349847A64271
:1026A000F9D170BD70BD00BF4EF2B0430146C1F616
:1026B000FF73186800F008B84EF2B0430146C1F647
:1026C000FF73186800F0A6BB2DE9F04F01F10B0471
:1026D000162C83B0074630D924F00704E30F8C4250
:1026E0002CBF194643F0010100292FD1384600F0D4
:1026F000B7FAB4F5FC7F2ED24FEAD40C4EF2A456B2
:10270000C1F6FF7606EBCC02D368934200F011824B
:10271000596803F10808DA68384621F0030499681B
:102720001B195C68CA6044F0010491605C6000F0B1
:1027300099FA404603B0BDE8F08F002310248C4284
:102740002CBF194643F001010029CFD00C234FF0D4
:1027500000083B60EDE75FEA542C04BF4FEAD40C5D
:102760004FEA4C0540F08F804EF2A456C1F6FF763A
:1027700006EB8505EB689D4206D10DE0002A80F24C
:102780005581DB689D4207D0596821F003010A1B7F
:102790000F2AF3DD0CF1FF3C0CF1010C4EF2A452B8
:1027A0003369C1F6FF7202F1080E734508BFD2F813
:1027B000049022D0586820F00300011B0F2900F379
:1027C00084810029C2F814E0C2F810E066DAB0F59E
:1027D000007F80F04E81C1084FF0010802EBC1007C
:1027E000891008FA01F851688568D86048EA01093B
:1027F000C2F804909D60EB60836001224FEAAC0355
:1028000002FA03F34B4554D819EA030F0DD1934054
:102810002CF0030C19EA030F0CF1040C05D15B003A
:102820000CF1040C19EA030FF9D006EBCC09E046D1
:102830004846C268904207D15BE1002980F283815B
:10284000D268904200F05581556825F00305291B98
:102850000F29F2DD90461319D56844F0010058F8AD
:10286000084F41F0010C50603846C3F804C0E560E1
:10287000AC6073613361C3F80CE0C3F808E05950F1
:1028800000F0F0F955E7BCF1040F00F2DE804FEAEA
:10289000941C0CF1380C4FEA4C0565E71A1803F14B
:1028A00008083846536843F00103536000F0DAF932
:1028B0003FE7B5686B6823F0030A544504D8C4EBBE
:1028C0000A030F2B00F3A4804EF63459D6F80814EF
:1028D000C1F6FF7905EB0A020131D9F80030234433
:1028E00008BF03F1100B06D003F580530F3323F418
:1028F0007F6323F00F0B38465946019200F0B4F97C
:10290000019A411C804600F06881824200F23181C8
:10291000D9F8043042455B44C9F8043000F06681C0
:10292000D6F808144EF2A450C1F6FF70013117BF5B
:10293000C2EB0802C0F808849B18C9F8043018F0EC
:10294000070338461FBFC3F10802C3F58053904404
:1029500003F1080208EB0B0308BF4FF480521B057C
:102960001B0DC3EB020B594600F07EF9431C00F02F
:102970004981C8EB0001594441F00101D9F8043004
:10298000B5424EF63452C6F808805B44C1F6FF7279
:10299000C8F80410C9F8043018D0BAF10F0F40F28B
:1029A0000B81AAF10C00696820F007004FF0050CBC
:1029B00005EB000E0F2801F0010140EA01016960FA
:1029C000CEF804C0CEF808C000F220814EF6345292
:1029D000D9F82C10C1F6FF72B5688B42D9F83010C7
:1029E00088BFD3624EF63452C1F6FF728B4288BF65
:1029F00013636A6822F003029442C4EB020301D815
:102A00000F2B05DC38464FF0000800F02BF990E65C
:102A10002A1943F0010344F0010438466C6005F1C3
:102A200008085360B26000F01DF982E65918DA68B0
:102A30009C6838464D6803F1080845F00105E260DE
:102A400094604D6000F00EF973E6BCF1140F9CBF6A
:102A50000CF15B0C4FEA4C057FF686AEBCF1540FCF
:102A600000F293804FEA143C0CF16E0C4FEA4C05D7
:102A70007AE6420A042A75D9142A9CBF02F15B093E
:102A80004FEA490508D9542A00F2C9804FEA1039A3
:102A900009F16E094FEA490506EB85054EF2A45887
:102AA000C1F6FF78AA68AA4279D0516821F00301E3
:102AB000884202D292689542F7D1D068D6F8049045
:102AC000D8609A60D360836097E61D1941F00106D3
:102AD000556144F00104156138465C6003F1080853
:102AE000C5F80CE0C5F808E06E60695000F0BAF86F
:102AF0001FE608F10108083018F0030F7FF499AEC3
:102B00004A461CF0030FA2F108010CF1FF3C00F053
:102B10009E8012688A42F4D072685B0093423FF64E
:102B2000C8AE002B3FF4C5AE1A4200F09580C446F3
:102B30007BE603F108025B699A4208BF0CF1020CC4
:102B40003FF42CAEE4E590465519D368384658F862
:102B5000082F6968D36041F001019A60696000F054
:102B600081F8E6E54FEA901909F138094FEA49057D
:102B700092E7B5424EF2A453C1F6FF733FF4C8AEDC
:102B80009D686A6822F0030236E7BCF5AA7F19D86F
:102B90004FEAD43C0CF1770C4FEA4C05E4E50125F3
:102BA000D8F804104FEAA909104605FA09F545EAD4
:102BB0000109C8F8049083E701234546C8F80430AA
:102BC000002219E740F254539C450BD84FEA944C2D
:102BD0000CF17C0C4FEA4C05C6E5B5686A6822F03A
:102BE000030209E7FC254FF07E0CBDE51105090D38
:102BF00000297FF495AEB2680BEB0A0141F00101A8
:102C00005160E3E601214FF0000BB7E6384605F1CD
:102C10000801019200F0FEF8019A5368D6E6B2F579
:102C2000AA7F06D84FEAD03909F177094FEA49055A
:102C300032E740F25451FC258A424FF07E099EBF94
:102C40004FEA904909F17C094FEA490524E7726887
:102C500022EA0302726060E75B0008F1040863E7A0
:102C6000704700BF704700BF38B54EF67854C1F6C4
:102C7000FF740546084600232360FEF7CFF8431C87
:102C800000D038BD2368002BFBD02B6038BD00BFBF
:102C90002DE9F04143F23024C0F2000484B007462D
:102CA0002568AC6C002C42D066681F2E1ADD42F2FB
:102CB000A964C0F2000424B94FF0FF3004B0BDE8AD
:102CC000F0818C20039102920193FFF7EDFC0399B0
:102CD000029A019B04460028EED0A86C002684E8E6
:102CE0004100AC64DFB1D4F8886026B3D6F8008127
:102CF00065680120022F05F1200C00FA05F046F866
:102D0000252048EA000246F82C3008BFD6F80431E6
:102D1000C6F8002104BF1843C6F8040100E0656846
:102D2000AB1C00200135656044F82310C6E705F1AF
:102D30004C04AC64B8E742F2A960C0F2000000287D
:102D4000BAD04FF48470039102920193FFF7ACFC68
:102D50000399029A019B06460028ADD00020C6F8D0
:102D60000001C6F804018046C4F88860C0E700BFCF
:102D7000F8B54EF2A454C1F6FF740F460546FFF7AE
:102D80006FFFA3685E6826F0030606F6EF73DF1B8D
:102D90003F0B013F3F03B7F5805F07DB002128466B
:102DA000FFF762FFA3689B19984204D02846FFF7FB
:102DB00059FF0020F8BD79422846FFF755FF013042
:102DC00010D04EF63853A168C1F6FF73F61B2846A3
:102DD00046F001061A684E60D71B1F60FFF742FFDE
:102DE0000120F8BD00212846FFF73EFFA368C21A64
:102DF0000F2ADBDD4EF6AC144EF63851C1F6FF74E7
:102E0000C1F6FF7142F001025A602368C01A0860DF
:102E1000CCE700BF2DE9F0410E46804600295CD08A
:102E2000FFF71EFF4EF2A45556F8041CC1F6FF75BD
:102E3000A6F1080421F00103AF68E2189742506838
:102E400020F0030067D011F00101506035D000215F
:102E50001618766816F0010F06D11B189068002925
:102E60004DD0D268C260906043F00102E3506260CE
:102E7000F1B9B3F5007F32D35A0A042A6CD8980905
:102E80003830410005EB81054EF2A451C1F6FF71C7
:102E9000AA68AA426BD0516821F003018B4202D28A
:102EA00092689542F7D1D368E360A260D4609C60D9
:102EB0004046BDE8F041FFF7D5BE56F8086C05F175
:102EC000080CA41B9B19A668664543D0D4F80CC017
:102ED000C6F80CC0CCF80860BAE7BDE8F081DB08A2
:102EE0000121686805EBC3029B1001FA03F3E2605D
:102EF000916818436860A160CC609460D8E7294E5F
:102F0000B042AED16C6143F001022C61E060A06080
:102F10006260E350CCE7C018CB0707D456F8083CF2
:102F2000E41AC018A268E368D3609A604EF6B01243
:102F300040F00103C1F6FF726360AC601368984211
:102F4000B6D34EF634534046C1F6FF731968FFF707
:102F50000FFFADE701217BE702F15B004100142A7E
:102F600090D9542A0CD8180B6E3041008AE70126FC
:102F70004D688010134606FA00F005434D6093E754
:102F8000B2F5AA7F03D8D80B773041007AE740F238
:102F900054518A4203D8980C7C30410072E7FC21DE
:102FA0007E206FE7ACE5FF1F4008FE4340A00440D1
:102FB0004408FE4344A004400018FE4300C00440FF
:102FC0003000FE43309004403400FE43349004400F
:102FD0001C18FE431CC004401018FE4310C00440DF
:102FE0000818FE4308C004400C18FE430CC00440FF
:102FF0000C10FE430CB004401010FE4310B004400F
:103000001810FE4318B004401C10FE431CB00440CE
:103010001410FE4314B004400418FE4304C00440DE
:103020000010FE4300B004400008FE4300A004402E
:103030000408FE4304A004400C08FE430CA0044016
:103040000808FE4308A004401418FE4314C00440BE
:103050001818FE4318C004400410FE4304B0044096
:103060000810FE4308B004401400FE4314900440CE
:103070004C08FE434CA004400420FE4304D004400E
:103080002410FE4324B004402010FE4320B004402E
:103090002810FE4328B004402C10FE432CB00440FE
:1030A0000020FE4300D004404808FE4348A00440EE
:1030B0001000FE4310900440001519150001000097
:1030C00010E4FF1F12000000000200003AE4FF1F9E
:1030D000430000000003000094E4FF1F0000000014
:1030E0000103090422E4FF1F000000000203090499
:1030F0007EE4FF1F000000000303090498E4FF1FA3
:1031000000000000000000000000000000000000BF
:103110000000000000000000292100002121000023
:103120003B21000037210000332100002F21000047
:1031300000000000000000002B2200000000000042
:10314000000000000000000065230000892300004B
:10315000A9230000A1230000A52300009D23000057
:10316000B1230000C3230000AD230000372400007A
:10317000992300002923000035230000412300008B
:103180004D230000712300005923000000000000BF
:103190000000000000000000EF23000013240000E6
:1031A000332400002B2400002F24000027240000DB
:1031B00041240000532400003D2400003724000077
:1031C00023240000F9220000052300001123000041
:1031D0001D230000FB230000E3230000000000008B
:1031E000000000000000000085250000A925000067
:1031F000C9250000C1250000C5250000BD2500002F
:10320000D1250000E3250000CD2500003724000073
:10321000B925000049250000552500006125000062
:103220006D250000912500007925000000000000B8
:10323000B4E4FF1F43000000000000000000000095
:10324000000000000000000000000000000000007E
:10325000000000000000000000000000000000006E
:10326000000000000000000000000000000000005E
:10327000000000000000000000000000000000004E
:10328000000000000000000000000000000000003E
:103290000000000000000000F8B500BFF8BC08BC4A
:1032A0009E46704799040000412100006D220000F5
:1032B00075240000112500002D25000005260000C2
:1032C000000000000D000000FFFFFFFF7CEDFF1F6E
:1032D0001201000202000040C01683040001010236
:1032E000030118035400650065006E007300790047
:1032F0006400750069006E006F000902430002015E
:1033000000C032090400000102020100052400107F
:103310000105240101010424020605240600010719
:1033200005820310004009040100020A00000007A2
:103330000503024000000705840240000000160358
:1033400055005300420020005300650072006900E0
:1033500061006C00040309040C030000000000007D
:1033600000000000000000000000000000000A044F
:10337000B4E4FF1F00000000783200005832000063
:1033800038320000000000000000000000000000D3
:1033900000000000343200000000000000000000C7
:1033A000000000000000000000000000000000001D
:1033B000000000000000000000000000000000000D
:1033C00000000000000000000000000000000000FD
:1033D00000000000000000000000000000000000ED
:1033E00000000000000000000000000000000000DD
:1033F00000000000000000000000000000000000CD
:1034000000000000000000000000000000000000BC
:1034100000000000000000000000000000000000AC
:10342000000000000000000000000000000000009C
:10343000000000000000000000000000000000008C
:10344000000000000000000000000000000000007C
:10345000000000000000000000000000000000006C
:10346000000000000000000000000000A4E5FF1FB5
:10347000A4E5FF1FACE5FF1FACE5FF1FB4E5FF1F90
:10348000B4E5FF1FBCE5FF1FBCE5FF1FC4E5FF1F40
:10349000C4E5FF1FCCE5FF1FCCE5FF1FD4E5FF1FF0
:1034A000D4E5FF1FDCE5FF1FDCE5FF1FE4E5FF1FA0
:1034B000E4E5FF1FECE5FF1FECE5FF1FF4E5FF1F50
:1034C000F4E5FF1FFCE5FF1FFCE5FF1F04E6FF1FFF
:1034D00004E6FF1F0CE6FF1F0CE6FF1F14E6FF1FAC
:1034E00014E6FF1F1CE6FF1F1CE6FF1F24E6FF1F5C
:1034F00024E6FF1F2CE6FF1F2CE6FF1F34E6FF1F0C
:1035000034E6FF1F3CE6FF1F3CE6FF1F44E6FF1FBB
:1035100044E6FF1F4CE6FF1F4CE6FF1F54E6FF1F6B
:1035200054E6FF1F5CE6FF1F5CE6FF1F64E6FF1F1B
:1035300064E6FF1F6CE6FF1F6CE6FF1F74E6FF1FCB
:1035400074E6FF1F7CE6FF1F7CE6FF1F84E6FF1F7B
:1035500084E6FF1F8CE6FF1F8CE6FF1F94E6FF1F2B
:1035600094E6FF1F9CE6FF1F9CE6FF1FA4E6FF1FDB
:10357000A4E6FF1FACE6FF1FACE6FF1FB4E6FF1F8B
:10358000B4E6FF1FBCE6FF1FBCE6FF1FC4E6FF1F3B
:10359000C4E6FF1FCCE6FF1FCCE6FF1FD4E6FF1FEB
:1035A000D4E6FF1FDCE6FF1FDCE6FF1FE4E6FF1F9B
:1035B000E4E6FF1FECE6FF1FECE6FF1FF4E6FF1F4B
:1035C000F4E6FF1FFCE6FF1FFCE6FF1F04E7FF1FFA
:1035D00004E7FF1F0CE7FF1F0CE7FF1F14E7FF1FA7
:1035E00014E7FF1F1CE7FF1F1CE7FF1F24E7FF1F57
:1035F00024E7FF1F2CE7FF1F2CE7FF1F34E7FF1F07
:1036000034E7FF1F3CE7FF1F3CE7FF1F44E7FF1FB6
:1036100044E7FF1F4CE7FF1F4CE7FF1F54E7FF1F66
:1036200054E7FF1F5CE7FF1F5CE7FF1F64E7FF1F16
:1036300064E7FF1F6CE7FF1F6CE7FF1F74E7FF1FC6
:1036400074E7FF1F7CE7FF1F7CE7FF1F84E7FF1F76
:1036500084E7FF1F8CE7FF1F8CE7FF1F94E7FF1F26
:1036600094E7FF1F9CE7FF1F9CE7FF1FA4E7FF1FD6
:10367000A4E7FF1FACE7FF1FACE7FF1FB4E7FF1F86
:10368000B4E7FF1FBCE7FF1FBCE7FF1FC4E7FF1F36
:10369000C4E7FF1FCCE7FF1FCCE7FF1FD4E7FF1FE6
:1036A000D4E7FF1FDCE7FF1FDCE7FF1FE4E7FF1F96
:1036B000E4E7FF1FECE7FF1FECE7FF1FF4E7FF1F46
:1036C000F4E7FF1FFCE7FF1FFCE7FF1F04E8FF1FF5
:1036D00004E8FF1F0CE8FF1F0CE8FF1F14E8FF1FA2
:1036E00014E8FF1F1CE8FF1F1CE8FF1F24E8FF1F52
:1036F00024E8FF1F2CE8FF1F2CE8FF1F34E8FF1F02
:1037000034E8FF1F3CE8FF1F3CE8FF1F44E8FF1FB1
:1037100044E8FF1F4CE8FF1F4CE8FF1F54E8FF1F61
:1037200054E8FF1F5CE8FF1F5CE8FF1F64E8FF1F11
:1037300064E8FF1F6CE8FF1F6CE8FF1F74E8FF1FC1
:1037400074E8FF1F7CE8FF1F7CE8FF1F84E8FF1F71
:1037500084E8FF1F8CE8FF1F8CE8FF1F94E8FF1F21
:1037600094E8FF1F9CE8FF1F9CE8FF1FA4E8FF1FD1
:10377000A4E8FF1FACE8FF1FACE8FF1FB4E8FF1F81
:10378000B4E8FF1FBCE8FF1FBCE8FF1FC4E8FF1F31
:10379000C4E8FF1FCCE8FF1FCCE8FF1FD4E8FF1FE1
:1037A000D4E8FF1FDCE8FF1FDCE8FF1FE4E8FF1F91
:1037B000E4E8FF1FECE8FF1FECE8FF1FF4E8FF1F41
:1037C000F4E8FF1FFCE8FF1FFCE8FF1F04E9FF1FF0
:1037D00004E9FF1F0CE9FF1F0CE9FF1F14E9FF1F9D
:1037E00014E9FF1F1CE9FF1F1CE9FF1F24E9FF1F4D
:1037F00024E9FF1F2CE9FF1F2CE9FF1F34E9FF1FFD
:1038000034E9FF1F3CE9FF1F3CE9FF1F44E9FF1FAC
:1038100044E9FF1F4CE9FF1F4CE9FF1F54E9FF1F5C
:1038200054E9FF1F5CE9FF1F5CE9FF1F64E9FF1F0C
:1038300064E9FF1F6CE9FF1F6CE9FF1F74E9FF1FBC
:1038400074E9FF1F7CE9FF1F7CE9FF1F84E9FF1F6C
:1038500084E9FF1F8CE9FF1F8CE9FF1F94E9FF1F1C
:1038600094E9FF1F9CE9FF1F9CE9FF1FFFFFFFFF7B
:043870000000020052
:00000001FF
